:100000000C94AF000C94CC000C94CC000C94CC005D
:100010000C94CC000C94CC000C94CC000C94CC0030
:100020000C94CC000C94CC000C94CC000C94CC0020
:100030000C94CC000C94CC000C94CC000C94CC0010
:100040000C94CC000C94CC000C94CC000C94CC0000
:100050000C94CC000C94CC000C94CC000C94CC00F0
:100060000C94CC000C94CC000806300606060A0658
:100070000C060E06100612061406160618061A06B8
:100080001C061E06060606060606060606060606E2
:1000900006060606200606060606060606060606E6
:1000A00006060606060606060606060606062206D4
:1000B00006060606060624060606060606060606C2
:1000C00006060606060606060606060606060606D0
:1000D00026060606060606062806060606062A065A
:1000E00006060606060606062C06060606062E0662
:1000F0000000000000006060000008080808083EDA
:100100005149453E00427F400062514949462249DB
:100110004949361814127F102F494949313E49493F
:100120004932017109050336494949362649494989
:100130003E00363600003E414141227F0909090652
:1001400001017F0101205454547838545454187FCD
:10015000080404787C041804787C1414140811240E
:100160001FBECFEFD8E0DEBFCDBF11E0A0E0B1E011
:10017000EEE5FAE102C005900D92AA32B107D9F777
:1001800021E0AAE2B1E001C01D92A836B207E1F772
:100190000E940E050C942D0D0C940000FC01208192
:1001A000818190E0982F8827822B0895FC0120817F
:1001B000818190E0982F8827822B08950F931F93B9
:1001C000FC0120816181862F90E0A0E0B0E0BA2F91
:1001D000A92F982F8827AC01BD01422B828190E086
:1001E000A0E0B0E0DC01992788278A019B01082B59
:1001F000192B2A2B3B2BC901B8011F910F91089590
:100200008F929F92AF92BF92CF92DF92EF92FF9226
:10021000CF93DF930E94CA08CAE2D1E028813981D6
:100220004A815B810E94B5076B017C012C813D8175
:100230004E815F810E945D094B015C01A70196011F
:10024000C701B6010E945D09288539854A855B850D
:100250000E945D099B01AC01C501B4010E94B60773
:1002600068AF79AF8AAF9BAFDF91CF91FF90EF90EE
:10027000DF90CF90BF90AF909F908F9008954F9256
:100280005F926F927F928F929F92AF92BF92CF9226
:10029000DF92EF92FF92CF93DF93CDB7DEB76097F7
:1002A0000FB6F894DEBF0FBECDBF6D837E838F8304
:1002B000988760914A0170914B0180914C01909117
:1002C0004D01409062015090630160906401709014
:1002D0006501A30192010E945D0969877A878B8776
:1002E0009C87C0904E01D0904F01E0905001F0905B
:1002F0005101A3019201C301B2010E945D094B01AA
:100300005C019B01AC01C701B6010E945D096D87CC
:100310007E878F87988BC0905201D0905301E090D8
:100320005401F0905501A5019401C301B2010E944E
:100330005D0969837A838B839C839B01AC01C70130
:10034000B6010E945D096B017C012091460130914C
:100350004701409148015091490169857A858B8513
:100360009C850E94B6079B01AC016D857E858F85BB
:1003700098890E94B6079B01AC01C701B6010E9493
:10038000B60769877A878B879C8720913A013091DD
:100390003B0140913C0150913D01C301B2010E94DB
:1003A0005D096D877E878F87988B20913E01309104
:1003B0003F014091400150914101C501B4010E94AB
:1003C0005D094B015C012091420130914301409154
:1003D00044015091450169817A818B819C810E9401
:1003E0005D0969837A838B839C836D817E818F8194
:1003F00098850E94CA086B017C01209136013091DA
:10040000370140913801509139016D857E858F8586
:1004100098890E94B6079B01AC01C501B4010E94F6
:10042000B6079B01AC0169817A818B819C810E9416
:10043000B6079B01AC01C701B6010E945D096D833F
:100440007E838F839887A7019601C701B6010E941A
:100450005D0969837A838B839C8380905601909099
:100460005701A0905801B090590120915A01309144
:100470005B0140915C0150915D01C301B2010E949A
:100480005D099B01AC01C501B4010E94B6079B0147
:10049000AC0169817A818B819C810E945D094B014D
:1004A0005C0129813A814B815C81C701B6010E94C0
:1004B0005D0920915E0130915F0140916001509192
:1004C00061010E945D099B01AC01C501B4010E945C
:1004D000B6076B017C012D813E814F81588569856E
:1004E0007A858B859C850E94B6079B01AC01C7016C
:1004F000B6010E94B60760960FB6F894DEBF0FBE35
:10050000CDBFDF91CF91FF90EF90DF90CF90BF9064
:10051000AF909F908F907F906F905F904F900895D5
:100520000F931F93CF93DF93C82F8B01D42F80910C
:100530000001880F0E9460078C2F0E948C07809119
:10054000000190E0880F991F81600E946007C0E061
:1005500016C02C2F30E08D2F90E001972817390717
:1005600039F40E94A707F801EC0FF11D808306C043
:100570000E949D07F801EC0FF11D8083CF5FCD171E
:1005800040F30E94B107DF91CF911F910F91089521
:100590002F923F924F925F926F927F928F929F9293
:1005A000AF92BF92CF92DF92EF92FF920F931F9381
:1005B000CF93DF93CDB7DEB76A970FB6F894DEBF5F
:1005C0000FBECDBF45E1BE016F5F7F4F81E30E944B
:1005D0009002CE0101960E94D6008C01CE010396B6
:1005E0000E94D6004C013D80CE0106960E94CE00AE
:1005F0005C01CE0108960E94CE006C012A842B85F6
:100600002E8BCE010C960E94D6007C01CE010E9658
:100610000E94D6003C0188898F8BE989E88FCE0142
:1006200042960E94CE002C01FC89F98F2D892A8FD9
:10063000B80180E090E00E94CA0820E030E040E885
:100640005BE30E945D090AE211E0F80160837183B7
:1006500082839383B40180E090E00E94CA0820E086
:1006600030E040E850E30E945D09F801648375833F
:1006700086839783632D330C770B880B990B0E942D
:10068000CC0820E030E040E857E20E945D09F80124
:100690006087718782879387B501BB0C880B990BA4
:1006A0000E94CC0820E030E040E856E40E94B50704
:1006B00020E030E040E855E30E945D09F8016487DE
:1006C000758786879787B601DD0C880B990B0E948A
:1006D000CC0820E030E040E856E40E94B50720E076
:1006E00030E040E051E30E945D09F801608B718BBE
:1006F000828B938B622D220C770B880B990B0E94B7
:10070000CC0820E030E040E85FE20E945D09F8019B
:10071000648B758B868B978BFE896F2FFF0F770B02
:10072000880B990B0E94CC0820E030E040E05DE2AD
:100730000E945D09F801608F718F828F938FB701DE
:1007400080E090E00E94CA0820E030E040E051E400
:100750000E945D09F801648F758F868F978FB301B2
:1007600080E090E00E94CA0820E030E040E85CE3CE
:100770000E945D09F80160A371A382A393A3FF897E
:100780006F2FFF0F770B880B990B0E94CC0820E08E
:1007900030E040E85BE30E945D09F80164A375A3C3
:1007A00086A397A3F88D6F2FFF0F770B880B990BFC
:1007B0000E94CC0820E030E040E058E30E945D0950
:1007C000F80160A771A782A793A7B201550C880B07
:1007D000990B0E94CC0820E030E040E857E20E94EC
:1007E0005D09F80164A775A786A797A7F98D6F2FF4
:1007F000FF0F770B880B990B0E94CC0820E030E0AC
:1008000040E857E20E945D09F80160AB71AB82AB32
:1008100093ABFA8D6F2FFF0F770B880B990B0E940C
:10082000CC0820E030E040E05FE10E945D09F80183
:1008300064AB75AB86AB97AB10AE11AE12AE13AE18
:100840006A960FB6F894DEBF0FBECDBFDF91CF9191
:100850001F910F91FF90EF90DF90CF90BF90AF90DE
:100860009F908F907F906F905F904F903F902F90D0
:100870000895CF93DF93D82FC62F80910001880F62
:100880000E9460078D2F0E948C078C2F0E948C077E
:100890000E94B107DF91CF91089563E18BE10E943F
:1008A00039048FE097E20197F1F700C00000089546
:1008B0008093000166EB8EE70E94390483EC99E097
:1008C0000197F1F700C000006BE08CE10E94390451
:1008D00060E08FE10E94390460E08DE10E943904FC
:1008E0000E94C80263E08BE10E9439040895CF930F
:1008F000DF9300D000D000D0CDB7DEB70E944D040A
:1009000046E0BE016F5F7F4F84E00E949002CE01FF
:1009100004960E94DE000E94000126960FB6F8940D
:10092000DEBF0FBECDBFDF91CF910895CF92DF9292
:10093000EF92FF92CF93DF9300D000D000D0CDB7DD
:10094000DEB70E944D0446E0BE016F5F7F4F84E03A
:100950000E949002CE0101960E94DE006B017C0194
:10096000CE0104960E94DE000E940001C701B6017C
:100970000E943F0126960FB6F894DEBF0FBECDBF92
:10098000DF91CF91FF90EF90DF90CF9008950F937C
:100990001F93CF93DF93CDB7DEB766970FB6F8946A
:1009A000DEBF0FBECDBF8C0180E008C0E1E0F0E00B
:1009B000EC0FFD1FE80FF11D90838F5FFA01E80F28
:1009C000F11D9081992361F0853180F309C0E1E048
:1009D000F0E0EC0FFD1FE80FF11D90E290838F5FB8
:1009E0008531A8F3E1E0F0E0EC0FFD1FE80FF11D09
:1009F000108240E0C8010E942907BE016F5F7F4F4F
:100A0000C8010E94320766960FB6F894DEBF0FBE8B
:100A1000CDBFDF91CF911F910F910895CF93DF93B9
:100A2000CDB7DEB7E1970FB6F894DEBF0FBECDBFEE
:100A30000E9457076CE3CE0101960E94BC0686E730
:100A40000E94580441E051E060E0CE0101960E940E
:100A5000C70446E051E062E0CE0101960E94C7045F
:100A60000E9496046B017C010E9477044B015C019B
:100A700020E030E048EC52E4C701B6010E942208B1
:100A80006B017C0120E030E040E251E40E945D090E
:100A90002B013C0120E030E0A901C701B6010E9412
:100AA000580988232CF060E070E080E09FE304C0E8
:100AB00060E070E080E09FEBA30192010E94B60726
:100AC0000E9494082AE030E040E050E00E94EE09E5
:100AD000122F032F742E652E6B017C0199233CF499
:100AE000CC24DD247601C61AD70AE80AF90A20E0E8
:100AF00030E040E251E4C501B4010E945D096EA7F7
:100B00007FA788AB99AB20E030E0A901C501B40113
:100B10000E94580988232CF060E070E080E09FE399
:100B200004C060E070E080E09FEB2EA53FA548A9DF
:100B300059A90E94B6070E9494082AE030E040E0DC
:100B400050E00E94EE09222E332E542E452E4B01EA
:100B50005C0199233CF4882499245401861A970A4D
:100B6000A80AB90AFF92EF92DF92CF926F927F921A
:100B70000F931F938CE091E09F938F931F920F2E02
:100B8000F6E1FF2EF02DFF928E01085E1F4F1F939E
:100B90000F930E94350ABF92AF929F928F924F920D
:100BA0005F923F922F9289E191E09F938F931F92E2
:100BB000FF927E0122E0E20EF11CFF92EF920E9472
:100BC000350AA80161E0CE0101960E94C704A70181
:100BD00063E0CE0101960E94C7048FE996E821E008
:100BE000815090402040E1F700C000000FB6F8941B
:100BF000DEBF0FBECDBF34CF90E0FC01BD97E43423
:100C0000F10520F4EC5CFF4F0C940D0A80E0089590
:100C100082E0089583E0089584E0089585E00895D2
:100C200086E0089587E0089588E0089589E00895B2
:100C30008AE008958BE008958CE008958DE0089592
:100C40008EE008958FE0089580E1089581E1089590
:100C500082E1089583E1089584E1089585E108958E
:100C600081E00895FC018081880F0E94600780E484
:100C70000E948C070895CF93C62FFC018081880FB6
:100C80000E94600780E00E948C078C2F0E948C07D6
:100C90000E94B107CF910895CF93DF93EC01677065
:100CA0006093670140936601606B0E943B06609110
:100CB00066016F70CE010E943B06609166016295ED
:100CC0006F706061CE010E943B06DF91CF91089565
:100CD0000E94B10708950F931F93CF93DF938C0168
:100CE000862F0E94FC05D82FC8010E943206C0E062
:100CF00011C08D2F90E0FC01EE0FFF1FEE0FFF1FC4
:100D0000E80FF91FEC0FF11DE051FF4F84910E9495
:100D10008C07CF5FC53068F380E00E948C070E948B
:100D20006806DF91CF911F910F9108950F931F9344
:100D3000CF93DF938C01D0E013C040E06D2FC8014A
:100D40000E944C06C8010E943206C0E004C080E048
:100D50000E948C07CF5FCC23D4F70E946806DF5F28
:100D6000D83058F340E060E0C8010E944C06DF91A3
:100D7000CF911F910F910895CF93DF93EC0168837A
:100D80006EEA0E943B0665EDCE010E943B0660E8DC
:100D9000CE010E943B0668EACE010E943B066FE34B
:100DA000CE010E943B0663EDCE010E943B0660E04F
:100DB000CE010E943B0660E4CE010E943B066DE836
:100DC000CE010E943B0664E1CE010E943B0660E238
:100DD000CE010E943B0660E0CE010E943B0661EA24
:100DE000CE010E943B0668ECCE010E943B066AEDF4
:100DF000CE010E943B0662E1CE010E943B0661E803
:100E0000CE010E943B066FECCE010E943B0669EDCD
:100E1000CE010E943B0661EFCE010E943B066BEDC6
:100E2000CE010E943B0660E4CE010E943B0664EACC
:100E3000CE010E943B0666EACE010E943B066FEAA5
:100E4000CE010E943B06CE010E949606DF91CF9113
:100E50000895242F220F240F422F440F67700E9401
:100E60004C0608950F931F93CF93DF938C01EB01F2
:100E700012C06A3061F4609167016F5F67706093C0
:100E8000670140E0C8010E944C06219604C02196EB
:100E9000C8010E946B0668816111EBCFDF91CF9191
:100EA0001F910F9108958091B900887F0895109245
:100EB000B90082E08093B80084E08093BC0008957C
:100EC000CF93C82F84EA8093BC008091BC00882314
:100ED000E4F70E945307883011F08031C1F4C093C9
:100EE000BB0084E88093BC008091BC008823E4F7B9
:100EF0000E945307982F8C2F8170C0FD04C0983139
:100F000049F481E007C0903421F481E003C080E01F
:100F100001C080E0CF9108958093BB0084E8809366
:100F2000BC008091BC008823E4F70E94530791E045
:100F3000883209F090E0892F089584EC8093BC00FA
:100F40008091BC008823E4F78091BB00089584E879
:100F50008093BC008091BC008823E4F78091BB00A3
:100F6000089584E98093BC0008955058BB27AA27B0
:100F70000E94CD070C941E090E94100938F00E94AF
:100F8000170920F039F49F3F19F426F40C940D0949
:100F90000EF4E095E7FB0C940709E92F0E942F0956
:100FA00058F3BA17620773078407950720F079F49E
:100FB000A6F50C9451090EF4E0950B2EBA2FA02D36
:100FC0000B01B90190010C01CA01A0011124FF27F6
:100FD000591B99F0593F50F4503E68F11A16F040F1
:100FE000A22F232F342F4427585FF3CF46953795F0
:100FF0002795A795F0405395C9F77EF41F16BA0BB5
:10100000620B730B840BBAF09150A1F0FF0FBB1F62
:10101000661F771F881FC2F70EC0BA0F621F731FAB
:10102000841F48F4879577956795B795F7959E3F08
:1010300008F0B0CF9395880F08F09927EE0F979599
:10104000879508950E9436080C941E090E9417097E
:1010500058F00E94100940F029F45F3F29F00C94E9
:10106000070951110C9452090C940D090E942F0983
:1010700068F39923B1F3552391F3951B550BBB27C7
:10108000AA2762177307840738F09F5F5F4F220F0C
:10109000331F441FAA1FA9F335D00E2E3AF0E0E803
:1010A00032D091505040E695001CCAF72BD0FE2F4D
:1010B00029D0660F771F881FBB1F261737074807E1
:1010C000AB07B0E809F0BB0B802DBF01FF27935899
:1010D0005F4F3AF09E3F510578F00C9407090C944D
:1010E00052095F3FE4F3983ED4F386957795679570
:1010F000B795F7959F5FC9F7880F911D96958795CE
:1011000097F90895E1E0660F771F881FBB1F6217EC
:1011100073078407BA0720F0621B730B840BBA0BAA
:10112000EE1F88F7E09508950E949B086894B1111E
:101130000C94520908950E94370988F09F5798F03F
:10114000B92F9927B751B0F0E1F0660F771F881FCC
:10115000991F1AF0BA95C9F714C0B13091F00E94E6
:101160005109B1E008950C945109672F782F882711
:10117000B85F39F0B93FCCF3869577956795B3950D
:10118000D9F73EF490958095709561957F4F8F4F7C
:101190009F4F0895E89409C097FB3EF49095809581
:1011A000709561957F4F8F4F9F4F9923A9F0F92F2D
:1011B00096E9BB279395F695879577956795B795AB
:1011C000F111F8CFFAF4BB0F11F460FF1BC06F5F91
:1011D0007F4F8F4F9F4F16C0882311F096E911C0A3
:1011E000772321F09EE8872F762F05C0662371F0C4
:1011F00096E8862F70E060E02AF09A95660F771FD8
:10120000881FDAF7880F9695879597F9089597F9CB
:101210009F6780E870E060E008959FEF80EC08959C
:1012200000240A94161617061806090608950024C5
:101230000A9412161306140605060895092E03943F
:10124000000C11F4882352F0BB0F40F4BF2B11F4B3
:1012500060FF04C06F5F7F4F8F4F9F4F089557FD12
:101260009058440F551F59F05F3F71F04795880F14
:1012700097FB991F61F09F3F79F0879508951216AB
:1012800013061406551FF2CF4695F1DF08C0161657
:1012900017061806991FF1CF869571056105089408
:1012A0000895E894BB2766277727CB0197F908951F
:1012B0000E94CA0908F48FEF08950E9470090C94E7
:1012C0001E090E94100938F00E94170920F095238A
:1012D00011F00C9407090C940D0911240C94520977
:1012E0000E942F0970F3959FC1F3950F50E0551F91
:1012F000629FF001729FBB27F00DB11D639FAA276B
:10130000F00DB11DAA1F649F6627B00DA11D661FB9
:10131000829F2227B00DA11D621F739FB00DA11DDA
:10132000621F839FA00D611D221F749F3327A00D94
:10133000611D231F849F600D211D822F762F6A2F30
:1013400011249F5750409AF0F1F088234AF0EE0F95
:10135000FF1FBB1F661F771F881F91505040A9F7C2
:101360009E3F510580F00C9407090C9452095F3F91
:10137000E4F3983ED4F3869577956795B795F795FE
:10138000E7959F5FC1F7FE2B880F911D9695879576
:1013900097F90895990F0008550FAA0BE0E8FEEFA2
:1013A00016161706E807F907C0F012161306E40729
:1013B000F50798F0621B730B840B950B39F40A2622
:1013C00061F0232B242B252B21F408950A2609F400
:1013D000A140A6958FEF811D811D0895052E97FBD5
:1013E0001EF400940E94050A57FD07D00E94130ABC
:1013F00007FC03D04EF40C94050A509540953095A7
:1014000021953F4F4F4F5F4F089590958095709570
:1014100061957F4F8F4F9F4F0895EE0FFF1F0590EF
:10142000F491E02D0994A1E21A2EAA1BBB1BFD0129
:101430000DC0AA1FBB1FEE1FFF1FA217B307E407B3
:10144000F50720F0A21BB30BE40BF50B661F771F0B
:10145000881F991F1A9469F76095709580959095EB
:101460009B01AC01BD01CF010895AEE0B0E0EBE31C
:10147000FAE00C94040D0D891E898F89988D26E061
:101480002C831A83098397FF02C080E090E80197BC
:101490009E838D83AE01455E5F4F698D7A8DCE014F
:1014A00001960E94650A4D815E8157FD0AC02F8119
:1014B0003885421753070CF49A01F801E20FF31F25
:1014C00010822E96E4E00C94200DABE0B0E0EBE649
:1014D000FAE00C94F60C6C017B018A01FC01178286
:1014E0001682838181FFCCC1CE0101963C01F601B9
:1014F0009381F70193FD859193FF81917F0188236B
:1015000009F4BAC1853239F493FD859193FF819135
:101510007F01853229F4B60190E00E945C0CE7CF90
:10152000912C212C312CFFE1F315D8F08B3279F07E
:1015300038F4803279F08332A1F4232D20611DC06C
:101540008D3261F0803369F4232D216016C0832D24
:101550008260382EE32DE4603E2E2AC0F32DF86021
:101560001DC037FC2DC020ED280F2A3040F08E32F0
:10157000B9F436FC81C1232D2064322E19C036FE09
:1015800006C08AE0989E200D1124922E11C0EAE038
:101590002E9E200D1124222EF32DF0623F2E08C026
:1015A0008C3621F4832D8068382E02C0883641F4B1
:1015B000F70193FD859193FF81917F018111B3CF55
:1015C000982F9F7D9554933028F40C5F1F4F9FE315
:1015D00099830DC0833631F0833771F0833509F07C
:1015E00059C021C0F801808189830E5F1F4F882474
:1015F0008394912C530113C02801F2E04F0E511C2B
:10160000F801A080B18036FE03C0692D70E002C0F1
:101610006FEF7FEFC5010E94510C4C018201F32D49
:10162000FF773F2E16C0280122E0420E511CF80120
:10163000A080B18036FE03C0692D70E002C06FEF5C
:101640007FEFC5010E94460C4C01F32DF0683F2E40
:10165000820133FC1BC0822D90E088169906B0F4FD
:10166000B60180E290E00E945C0C2A94F4CFF50170
:1016700037FC859137FE81915F01B60190E00E94B1
:101680005C0C21102A9421E0821A910881149104A3
:1016900071F7E8C0843611F0893641F5F80137FE5C
:1016A00007C060817181828193810C5F1F4F08C0E8
:1016B00060817181072E000C880B990B0E5F1F4F04
:1016C000F32DFF763F2E97FF09C09095809570957A
:1016D00061957F4F8F4F9F4FF0683F2E2AE030E09B
:1016E000A3010E94980C882E861845C0853731F4D6
:1016F000232D2F7EB22E2AE030E025C0932D997F36
:10170000B92E8F36C1F018F4883579F0B5C080371E
:1017100019F0883721F0B0C0E92FE061BE2EB4FE89
:101720000DC0FB2DF460BF2E09C034FE0AC0292F66
:101730002660B22E06C028E030E005C020E130E08F
:1017400002C020E132E0F801B7FE07C0608171817C
:10175000828193810C5F1F4F06C06081718180E0A0
:1017600090E00E5F1F4FA3010E94980C882E8618F0
:10177000FB2DFF773F2E36FE0DC0232D2E7FA22E90
:10178000891458F434FE0BC032FC09C0832D8E7EC0
:10179000A82E05C0B82CA32C03C0B82C01C0B92CAE
:1017A000A4FE0FC0FE01E80DF11D8081803321F4FD
:1017B0009A2D997EA92E09C0A2FE06C0B394B394B7
:1017C00004C08A2D867809F0B394A3FC11C0A0FE52
:1017D00006C0B21488F4280C922C9B180EC0B214C8
:1017E00060F4B60180E290E00E945C0CB394F7CF05
:1017F000B21418F42B1802C0982C212CA4FE10C08F
:10180000B60180E390E00E945C0CA2FE17C0A1FC30
:1018100003C088E790E002C088E590E0B6010CC004
:101820008A2D867859F0A1FE02C08BE201C080E2C9
:10183000A7FC8DE2B60190E00E945C0C891438F49C
:10184000B60180E390E00E945C0C9A94F7CF8A94F2
:10185000F301E80DF11D8081B60190E00E945C0C5F
:101860008110F5CF222009F442CEB60180E290E04B
:101870000E945C0C2A94F6CFF6018681978102C003
:101880008FEF9FEF2B96E2E10C94120DFC01059077
:10189000615070400110D8F7809590958E0F9F1F72
:1018A0000895FC016150704001900110D8F78095B7
:1018B00090958E0F9F1F08950F931F93CF93DF93E3
:1018C000FB01238121FD03C08FEF9FEF2CC022FF7E
:1018D00016C046815781248135814217530744F44D
:1018E000A081B1819D012F5F3F4F318320838C9375
:1018F000268137812F5F3F4F3783268314C08B01AA
:10190000EC01FB010084F185E02D0995892BE1F6BE
:10191000D80116968D919C911797019617969C93D6
:101920008E931697CE01DF91CF911F910F9108955D
:10193000FA01AA27283051F1203181F1E8946F9300
:101940006E7F6E5F7F4F8F4F9F4FAF4FB1E03ED0A6
:10195000B4E03CD0670F781F891F9A1FA11D680F44
:10196000791F8A1F911DA11D6A0F711D811D911D77
:10197000A11D20D009F468943F912AE0269F1124EC
:101980003019305D3193DEF6CF010895462F477050
:10199000405D4193B3E00FD0C9F7F6CF462F4F70AB
:1019A000405D4A3318F0495D31FD4052419302D009
:1019B000A9F7EACFB4E0A6959795879577956795AF
:1019C000BA95C9F700976105710508959B01AC01AF
:1019D0000A2E06945795479537952795BA95C9F7D6
:1019E000620F731F841F951FA01D08952F923F92B1
:1019F0004F925F926F927F928F929F92AF92BF921F
:101A0000CF92DF92EF92FF920F931F93CF93DF93CA
:101A1000CDB7DEB7CA1BDB0B0FB6F894DEBF0FBE27
:101A2000CDBF09942A88398848885F846E847D8474
:101A30008C849B84AA84B984C884DF80EE80FD8076
:101A40000C811B81AA81B981CE0FD11D0FB6F894EC
:0E1A5000DEBF0FBECDBFED010895F894FFCFAD
:101A5E00766850613A0054656D703A006850613A8C
:101A6E0020256C642E256C640054656D703A20251B
:0A1A7E006C642E256C642043000008
:00000001FF
